{"@chainlink/contracts-ccip/src/v0.8/ccip/libraries/Internal.sol":{"Internal":{"abi":[{"inputs":[],"name":"GAS_PRICE_BITS","outputs":[{"internalType":"uint8","name":"","type":"uint8"}],"stateMutability":"view","type":"function"},{"inputs":[],"name":"MESSAGE_FIXED_BYTES","outputs":[{"internalType":"uint256","name":"","type":"uint256"}],"stateMutability":"view","type":"function"},{"inputs":[],"name":"MESSAGE_FIXED_BYTES_PER_TOKEN","outputs":[{"internalType":"uint256","name":"","type":"uint256"}],"stateMutability":"view","type":"function"}],"evm":{"bytecode":{"linkReferences":{},"object":"60bc610039600b82828239805160001a60731461002c57634e487b7160e01b600052600060045260246000fd5b30600052607381538281f3fe730000000000000000000000000000000000000000301460806040526004361060475760003560e01c806318994e7a14604c5780637a4bb232146067578063dc47c58b14607f575b600080fd5b605461022081565b6040519081526020015b60405180910390f35b606e607081565b60405160ff9091168152602001605e565b605460808156fea26469706673582212202586a7b1acc6b236b9a5e7212afcb073dfd217ebb3bdffd97ec629543002dbff64736f6c63430008140033","opcodes":"PUSH1 0xBC PUSH2 0x39 PUSH1 0xB DUP3 DUP3 DUP3 CODECOPY DUP1 MLOAD PUSH1 0x0 BYTE PUSH1 0x73 EQ PUSH2 0x2C JUMPI PUSH4 0x4E487B71 PUSH1 0xE0 SHL PUSH1 0x0 MSTORE PUSH1 0x0 PUSH1 0x4 MSTORE PUSH1 0x24 PUSH1 0x0 REVERT JUMPDEST ADDRESS PUSH1 0x0 MSTORE PUSH1 0x73 DUP2 MSTORE8 DUP3 DUP2 RETURN INVALID PUSH20 0x0 ADDRESS EQ PUSH1 0x80 PUSH1 0x40 MSTORE PUSH1 0x4 CALLDATASIZE LT PUSH1 0x47 JUMPI PUSH1 0x0 CALLDATALOAD PUSH1 0xE0 SHR DUP1 PUSH4 0x18994E7A EQ PUSH1 0x4C JUMPI DUP1 PUSH4 0x7A4BB232 EQ PUSH1 0x67 JUMPI DUP1 PUSH4 0xDC47C58B EQ PUSH1 0x7F JUMPI JUMPDEST PUSH1 0x0 DUP1 REVERT JUMPDEST PUSH1 0x54 PUSH2 0x220 DUP2 JUMP JUMPDEST PUSH1 0x40 MLOAD SWAP1 DUP2 MSTORE PUSH1 0x20 ADD JUMPDEST PUSH1 0x40 MLOAD DUP1 SWAP2 SUB SWAP1 RETURN JUMPDEST PUSH1 0x6E PUSH1 0x70 DUP2 JUMP JUMPDEST PUSH1 0x40 MLOAD PUSH1 0xFF SWAP1 SWAP2 AND DUP2 MSTORE PUSH1 0x20 ADD PUSH1 0x5E JUMP JUMPDEST PUSH1 0x54 PUSH1 0x80 DUP2 JUMP INVALID LOG2 PUSH5 0x6970667358 0x22 SLT KECCAK256 0x25 DUP7 0xA7 0xB1 0xAC 0xC6 0xB2 CALLDATASIZE 0xB9 0xA5 0xE7 0x21 0x2A 0xFC 0xB0 PUSH20 0xDFD217EBB3BDFFD97EC629543002DBFF64736F6C PUSH4 0x43000814 STOP CALLER "},"methodIdentifiers":{"GAS_PRICE_BITS()":"7a4bb232","MESSAGE_FIXED_BYTES()":"18994e7a","MESSAGE_FIXED_BYTES_PER_TOKEN()":"dc47c58b"}}}}}