{
  "_format": "hh-sol-artifact-1",
  "contractName": "Client",
  "sourceName": "@chainlink/contracts-ccip/src/v0.8/ccip/libraries/Client.sol",
  "abi": [
    {
      "inputs": [],
      "name": "EVM_EXTRA_ARGS_V1_TAG",
      "outputs": [
        {
          "internalType": "bytes4",
          "name": "",
          "type": "bytes4"
        }
      ],
      "stateMutability": "view",
      "type": "function"
    }
  ],
  "bytecode": "0x60c9610038600b82828239805160001a607314602b57634e487b7160e01b600052600060045260246000fd5b30600052607381538281f3fe730000000000000000000000000000000000000000301460806040526004361060335760003560e01c80633ab8c0d0146038575b600080fd5b605e7f97a657c90000000000000000000000000000000000000000000000000000000081565b6040517fffffffff00000000000000000000000000000000000000000000000000000000909116815260200160405180910390f3fea264697066735822122060727f0a5b401d7236d2a6295b0bf62a52f0540ec78d21ef4a29cb86cca2c8a964736f6c63430008140033",
  "linkReferences": {},
  "deployedLinkReferences": {}
}