{
  "_format": "hh-sol-artifact-1",
  "contractName": "TransferUSDC",
  "sourceName": "contracts/TransferUSDC.sol",
  "abi": [
    {
      "inputs": [
        {
          "internalType": "address",
          "name": "ccipRouter",
          "type": "address"
        },
        {
          "internalType": "address",
          "name": "linkToken",
          "type": "address"
        },
        {
          "internalType": "address",
          "name": "usdcToken",
          "type": "address"
        }
      ],
      "stateMutability": "nonpayable",
      "type": "constructor"
    },
    {
      "inputs": [
        {
          "internalType": "address",
          "name": "target",
          "type": "address"
        }
      ],
      "name": "AddressEmptyCode",
      "type": "error"
    },
    {
      "inputs": [
        {
          "internalType": "address",
          "name": "account",
          "type": "address"
        }
      ],
      "name": "AddressInsufficientBalance",
      "type": "error"
    },
    {
      "inputs": [
        {
          "internalType": "uint64",
          "name": "destinationChainSelector",
          "type": "uint64"
        }
      ],
      "name": "DestinationChainNotAllowlisted",
      "type": "error"
    },
    {
      "inputs": [],
      "name": "FailedInnerCall",
      "type": "error"
    },
    {
      "inputs": [
        {
          "internalType": "uint256",
          "name": "currentBalance",
          "type": "uint256"
        },
        {
          "internalType": "uint256",
          "name": "calculatedFees",
          "type": "uint256"
        }
      ],
      "name": "NotEnoughBalance",
      "type": "error"
    },
    {
      "inputs": [],
      "name": "NothingToWithdraw",
      "type": "error"
    },
    {
      "inputs": [
        {
          "internalType": "address",
          "name": "token",
          "type": "address"
        }
      ],
      "name": "SafeERC20FailedOperation",
      "type": "error"
    },
    {
      "anonymous": false,
      "inputs": [
        {
          "indexed": true,
          "internalType": "address",
          "name": "from",
          "type": "address"
        },
        {
          "indexed": true,
          "internalType": "address",
          "name": "to",
          "type": "address"
        }
      ],
      "name": "OwnershipTransferRequested",
      "type": "event"
    },
    {
      "anonymous": false,
      "inputs": [
        {
          "indexed": true,
          "internalType": "address",
          "name": "from",
          "type": "address"
        },
        {
          "indexed": true,
          "internalType": "address",
          "name": "to",
          "type": "address"
        }
      ],
      "name": "OwnershipTransferred",
      "type": "event"
    },
    {
      "anonymous": false,
      "inputs": [
        {
          "indexed": false,
          "internalType": "bytes32",
          "name": "messageId",
          "type": "bytes32"
        },
        {
          "indexed": false,
          "internalType": "uint64",
          "name": "destinationChainSelector",
          "type": "uint64"
        },
        {
          "indexed": false,
          "internalType": "address",
          "name": "receiver",
          "type": "address"
        },
        {
          "indexed": false,
          "internalType": "uint256",
          "name": "amount",
          "type": "uint256"
        },
        {
          "indexed": false,
          "internalType": "uint256",
          "name": "ccipFee",
          "type": "uint256"
        }
      ],
      "name": "UsdcTransferred",
      "type": "event"
    },
    {
      "inputs": [],
      "name": "acceptOwnership",
      "outputs": [],
      "stateMutability": "nonpayable",
      "type": "function"
    },
    {
      "inputs": [
        {
          "internalType": "uint64",
          "name": "_destinationChainSelector",
          "type": "uint64"
        },
        {
          "internalType": "bool",
          "name": "_allowed",
          "type": "bool"
        }
      ],
      "name": "allowlistDestinationChain",
      "outputs": [],
      "stateMutability": "nonpayable",
      "type": "function"
    },
    {
      "inputs": [
        {
          "internalType": "uint64",
          "name": "",
          "type": "uint64"
        }
      ],
      "name": "allowlistedChains",
      "outputs": [
        {
          "internalType": "bool",
          "name": "",
          "type": "bool"
        }
      ],
      "stateMutability": "view",
      "type": "function"
    },
    {
      "inputs": [],
      "name": "owner",
      "outputs": [
        {
          "internalType": "address",
          "name": "",
          "type": "address"
        }
      ],
      "stateMutability": "view",
      "type": "function"
    },
    {
      "inputs": [
        {
          "internalType": "address",
          "name": "to",
          "type": "address"
        }
      ],
      "name": "transferOwnership",
      "outputs": [],
      "stateMutability": "nonpayable",
      "type": "function"
    },
    {
      "inputs": [
        {
          "internalType": "uint64",
          "name": "_destinationChainSelector",
          "type": "uint64"
        },
        {
          "internalType": "address",
          "name": "_receiver",
          "type": "address"
        },
        {
          "internalType": "uint256",
          "name": "_amount",
          "type": "uint256"
        },
        {
          "internalType": "uint64",
          "name": "_gasLimit",
          "type": "uint64"
        }
      ],
      "name": "transferUsdc",
      "outputs": [
        {
          "internalType": "bytes32",
          "name": "messageId",
          "type": "bytes32"
        }
      ],
      "stateMutability": "nonpayable",
      "type": "function"
    },
    {
      "inputs": [
        {
          "internalType": "address",
          "name": "_beneficiary",
          "type": "address"
        },
        {
          "internalType": "address",
          "name": "_token",
          "type": "address"
        }
      ],
      "name": "withdrawToken",
      "outputs": [],
      "stateMutability": "nonpayable",
      "type": "function"
    }
  ],
  "bytecode": "0x60e06040523480156200001157600080fd5b506040516200135c3803806200135c8339810160408190526200003491620001a7565b33806000816200008b5760405162461bcd60e51b815260206004820152601860248201527f43616e6e6f7420736574206f776e657220746f207a65726f000000000000000060448201526064015b60405180910390fd5b600080546001600160a01b0319166001600160a01b0384811691909117909155811615620000be57620000be81620000df565b5050506001600160a01b0392831660805290821660a0521660c052620001f1565b336001600160a01b03821603620001395760405162461bcd60e51b815260206004820152601760248201527f43616e6e6f74207472616e7366657220746f2073656c66000000000000000000604482015260640162000082565b600180546001600160a01b0319166001600160a01b0383811691821790925560008054604051929316917fed8889f560326eb138920d842192f0eb3dd22b4f139c87a2c57538e05bae12789190a350565b80516001600160a01b0381168114620001a257600080fd5b919050565b600080600060608486031215620001bd57600080fd5b620001c8846200018a565b9250620001d8602085016200018a565b9150620001e8604085016200018a565b90509250925092565b60805160a05160c05161110362000259600039600081816103390152818161075a01526107c80152600081816103de0152818161055a015281816105e901526106df0152600081816104ca015281816106b001528181610799015261086601526111036000f3fe608060405234801561001057600080fd5b506004361061007d5760003560e01c806379ba50971161005b57806379ba5097146100f05780638da5cb5b146100f857806396d3b83d14610113578063f2fde38b1461012657600080fd5b80630bb106eb146100825780633aeac4e1146100ba5780636b83161a146100cf575b600080fd5b6100a5610090366004610e10565b60026020526000908152604090205460ff1681565b60405190151581526020015b60405180910390f35b6100cd6100c8366004610e42565b610139565b005b6100e26100dd366004610e75565b61027a565b6040519081526020016100b1565b6100cd610950565b6000546040516001600160a01b0390911681526020016100b1565b6100cd610121366004610ed0565b610a0e565b6100cd610134366004610f07565b610a42565b610141610a56565b6040516370a0823160e01b81523060048201526000906001600160a01b038316906370a0823190602401602060405180830381865afa158015610188573d6000803e3d6000fd5b505050506040513d601f19601f820116820180604052508101906101ac9190610f22565b9050806000036101e8576040517fd0d04f6000000000000000000000000000000000000000000000000000000000815260040160405180910390fd5b6040517fa9059cbb0000000000000000000000000000000000000000000000000000000081526001600160a01b0384811660048301526024820183905283169063a9059cbb906044016020604051808303816000875af1158015610250573d6000803e3d6000fd5b505050506040513d601f19601f820116820180604052508101906102749190610f3b565b50505050565b6000610284610a56565b67ffffffffffffffff8516600090815260026020526040902054859060ff166102ea576040517f0a503cdb00000000000000000000000000000000000000000000000000000000815267ffffffffffffffff821660048201526024015b60405180910390fd5b604080516001808252818301909252600091816020015b6040805180820190915260008082526020820152815260200190600190039081610301579050509050600060405180604001604052807f00000000000000000000000000000000000000000000000000000000000000006001600160a01b03168152602001878152509050808260008151811061038057610380610f58565b60209081029190910101526040805160a081019091526001600160a01b03881660c08201526000908060e0810160405160208183030381529060405281526020016040518060200160405280600081525081526020018481526020017f00000000000000000000000000000000000000000000000000000000000000006001600160a01b0316815260200161049260405180602001604052808a67ffffffffffffffff1681525060408051915160248084019190915281518084039091018152604490920190526020810180517bffffffffffffffffffffffffffffffffffffffffffffffffffffffff167f97a657c90000000000000000000000000000000000000000000000000000000017905290565b90526040517f20487ded0000000000000000000000000000000000000000000000000000000081529091506000906001600160a01b037f000000000000000000000000000000000000000000000000000000000000000016906320487ded90610501908d908690600401610fd7565b602060405180830381865afa15801561051e573d6000803e3d6000fd5b505050506040513d601f19601f820116820180604052508101906105429190610f22565b6040516370a0823160e01b81523060048201529091507f00000000000000000000000000000000000000000000000000000000000000006001600160a01b0316906370a0823190602401602060405180830381865afa1580156105a9573d6000803e3d6000fd5b505050506040513d601f19601f820116820180604052508101906105cd9190610f22565b811115610699576040516370a0823160e01b81523060048201527f00000000000000000000000000000000000000000000000000000000000000006001600160a01b0316906370a0823190602401602060405180830381865afa158015610638573d6000803e3d6000fd5b505050506040513d601f19601f8201168201806040525081019061065c9190610f22565b6040517f8f0f42060000000000000000000000000000000000000000000000000000000081526004810191909152602481018290526044016102e1565b60405163095ea7b360e01b81526001600160a01b037f000000000000000000000000000000000000000000000000000000000000000081166004830152602482018390527f0000000000000000000000000000000000000000000000000000000000000000169063095ea7b3906044016020604051808303816000875af1158015610728573d6000803e3d6000fd5b505050506040513d601f19601f8201168201806040525081019061074c9190610f3b565b506107826001600160a01b037f00000000000000000000000000000000000000000000000000000000000000001633308b610ab2565b60405163095ea7b360e01b81526001600160a01b037f000000000000000000000000000000000000000000000000000000000000000081166004830152602482018a90527f0000000000000000000000000000000000000000000000000000000000000000169063095ea7b3906044016020604051808303816000875af1158015610811573d6000803e3d6000fd5b505050506040513d601f19601f820116820180604052508101906108359190610f3b565b506040517f96f4e9f90000000000000000000000000000000000000000000000000000000081526001600160a01b037f000000000000000000000000000000000000000000000000000000000000000016906396f4e9f99061089d908d908690600401610fd7565b6020604051808303816000875af11580156108bc573d6000803e3d6000fd5b505050506040513d601f19601f820116820180604052508101906108e09190610f22565b6040805182815267ffffffffffffffff8d1660208201526001600160a01b038c1681830152606081018b90526080810184905290519197507fb55a3d3f1ccd1c10f00aff03ad884028d98fa1d478fae03acecbf884ce8e8fbc919081900360a00190a15050505050949350505050565b6001546001600160a01b031633146109aa5760405162461bcd60e51b815260206004820152601660248201527f4d7573742062652070726f706f736564206f776e65720000000000000000000060448201526064016102e1565b600080543373ffffffffffffffffffffffffffffffffffffffff19808316821784556001805490911690556040516001600160a01b0390921692909183917f8be0079c531659141344cd1fd0a4f28419497f9722a3daafe3b4186f6b6457e091a350565b610a16610a56565b67ffffffffffffffff919091166000908152600260205260409020805460ff1916911515919091179055565b610a4a610a56565b610a5381610b3a565b50565b6000546001600160a01b03163314610ab05760405162461bcd60e51b815260206004820152601660248201527f4f6e6c792063616c6c61626c65206279206f776e65720000000000000000000060448201526064016102e1565b565b604080516001600160a01b0385811660248301528416604482015260648082018490528251808303909101815260849091019091526020810180517bffffffffffffffffffffffffffffffffffffffffffffffffffffffff167f23b872dd00000000000000000000000000000000000000000000000000000000179052610274908590610bf0565b336001600160a01b03821603610b925760405162461bcd60e51b815260206004820152601760248201527f43616e6e6f74207472616e7366657220746f2073656c6600000000000000000060448201526064016102e1565b6001805473ffffffffffffffffffffffffffffffffffffffff19166001600160a01b0383811691821790925560008054604051929316917fed8889f560326eb138920d842192f0eb3dd22b4f139c87a2c57538e05bae12789190a350565b6000610c056001600160a01b03841683610c71565b90508051600014158015610c2a575080806020019051810190610c289190610f3b565b155b15610c6c576040517f5274afe70000000000000000000000000000000000000000000000000000000081526001600160a01b03841660048201526024016102e1565b505050565b6060610c7f83836000610c86565b9392505050565b606081471015610cc4576040517fcd7860590000000000000000000000000000000000000000000000000000000081523060048201526024016102e1565b600080856001600160a01b03168486604051610ce091906110b1565b60006040518083038185875af1925050503d8060008114610d1d576040519150601f19603f3d011682016040523d82523d6000602084013e610d22565b606091505b5091509150610d32868383610d3c565b9695505050505050565b606082610d5157610d4c82610db1565b610c7f565b8151158015610d6857506001600160a01b0384163b155b15610daa576040517f9996b3150000000000000000000000000000000000000000000000000000000081526001600160a01b03851660048201526024016102e1565b5080610c7f565b805115610dc15780518082602001fd5b6040517f1425ea4200000000000000000000000000000000000000000000000000000000815260040160405180910390fd5b803567ffffffffffffffff81168114610e0b57600080fd5b919050565b600060208284031215610e2257600080fd5b610c7f82610df3565b80356001600160a01b0381168114610e0b57600080fd5b60008060408385031215610e5557600080fd5b610e5e83610e2b565b9150610e6c60208401610e2b565b90509250929050565b60008060008060808587031215610e8b57600080fd5b610e9485610df3565b9350610ea260208601610e2b565b925060408501359150610eb760608601610df3565b905092959194509250565b8015158114610a5357600080fd5b60008060408385031215610ee357600080fd5b610eec83610df3565b91506020830135610efc81610ec2565b809150509250929050565b600060208284031215610f1957600080fd5b610c7f82610e2b565b600060208284031215610f3457600080fd5b5051919050565b600060208284031215610f4d57600080fd5b8151610c7f81610ec2565b7f4e487b7100000000000000000000000000000000000000000000000000000000600052603260045260246000fd5b60005b83811015610fa2578181015183820152602001610f8a565b50506000910152565b60008151808452610fc3816020860160208601610f87565b601f01601f19169290920160200192915050565b6000604067ffffffffffffffff8516835260208181850152845160a08386015261100460e0860182610fab565b905081860151603f19808784030160608801526110218383610fab565b88860151888203830160808a01528051808352908601945060009350908501905b8084101561107457845180516001600160a01b0316835286015186830152938501936001939093019290860190611042565b5060608901516001600160a01b031660a08901526080890151888203830160c08a015295506110a38187610fab565b9a9950505050505050505050565b600082516110c3818460208701610f87565b919091019291505056fea26469706673582212209fa1e3209fe477e3362950e53a798977db07cf6dd79975d9c1567c41d9416f1b64736f6c63430008140033",
  "linkReferences": {},
  "deployedLinkReferences": {}
}